:020000042001D9
:10800000000C0220898101201D820120258201208F
:108010002D820120358201203D82012000000000D8
:108020000000000000000000000000004582012068
:108030004D82012000000000558201201D85012095
:108040001582012015820120158201201582012050
:108050001582012015820120158201201582012040
:108060001582012015820120158201201582012030
:108070001582012015820120158201201582012020
:108080001582012015820120158201201582012010
:108090001582012015820120158201201582012000
:1080A00015820120158201201582012015820120F0
:1080B000158201201582012075830120158201207F
:1080C00015820120158201201582012015820120D0
:1080D00015820120158201201582012015820120C0
:1080E00015820120158201201582012015820120B0
:1080F00015820120158201201582012015820120A0
:10810000158201201582012015820120158201208F
:10811000158201201582012015820120158201207F
:10812000158201201582012015820120158201206F
:10813000158201201582012015820120158201205F
:10814000158201201582012015820120158201204F
:10815000158201201582012015820120158201203F
:10816000158201201582012015820120158201202F
:10817000158201201582012015820120158201201F
:10818000158201201582012080B584B000AF0D4B0F
:10819000BB600D4B7B60BB683B6004E03B681A1D15
:1081A0003A6000221A607A683B689A42F6D800F07A
:1081B000C7FC00F06DF8F86000F0F8FCF86800F01B
:1081C00013FD00BF508D01205C8D012080B584B06F
:1081D00000AF0D4BFB600D4BBB600D4B7B60BB6874
:1081E0003B6007E03B681A1D3A60FA68111DF960B0
:1081F00012681A607A683B689A42F3D800F0FAFC79
:108200001037BD4680BD00BF408D0120408D01204C
:10821000508D012080B400AFFEE700BF80B400AFF6
:10822000FEE700BF80B400AFFEE700BF80B400AF40
:10823000FEE700BF80B400AFFEE700BF80B400AF30
:10824000FEE700BF80B400AFFEE700BF80B400AF20
:10825000FEE700BF80B400AFFEE700BF80B400AF10
:04826000FEE700BF76
:10826400408D0120408D0120508D01200000002010
:108274000000001000000010508D01205C8D0120D2
:0C8284000000001000000010CD8101205F
:1082900080B582B000AF00F08BF800F011F900F06B
:1082A0000FF84FF4805000F09FF80123FB714FF45A
:1082B000004000F0A9F8642000F01CF9F5E700BFC9
:1082C00080B586B000AF0120012100F009FB012339
:1082D0003B6100233B7502237B750023BB750223A2
:1082E000FB7507F110031E48194600F087F91E239D
:1082F0003B7300237B730123BB730123FB7307F1E3
:108300000C03184600F01CF90420012100F006FBC4
:1083100042F20F733B8000237B80C7237B600023E6
:108320003B810023BB723B460E48194600F014FB0C
:108330000C4800F07BFB02460B4B1A6009480121F8
:10834000012200F09FFB0748012100F07BFB074B57
:1083500001221A70064B01221A701837BD4680BDE3
:108360000000024000080040548D0120518D012082
:10837000508D012080B500AF0A48012100F0A6FB16
:108380000346002B0DD00748012100F0C9FB064829
:10839000012100F0C1F90346002B02D1034B012259
:1083A0001A7080BD0008004000000240508D01207E
:1083B00080B582B000AF0820012100F091FA4FF49F
:1083C00070433B6001233B710023BB7103237B712E
:1083D0000023FB713B460348194600F00FF90837AC
:1083E000BD4680BD000C024080B582B000AF0346A0
:1083F000FB80FB880348194600F0A8F90837BD4602
:1084000080BD00BF000C024080B582B000AF0346C3
:10841000FB80FB880348194600F0A6F90837BD46E3
:1084200080BD00BF000C024080B483B000AF0346A3
:108430003960FB7197F90730002B0BDA0D49FB7996
:1084400003F00F03043B3A68D2B21201D2B20B44DC
:108450001A7609E0084997F907303A68D2B2120152
:10846000D2B20B4483F800230C37BD465DF8047B81
:10847000704700BF00ED00E000E100E080B582B091
:1084800000AF78607B68013BB3F1807F01D30123AB
:108490000FE00A4B7A68013A5A604FF0FF300F2123
:1084A000FFF7C2FF054B00229A60044B07221A60B7
:1084B000002318460837BD4680BD00BF10E000E02D
:1084C00080B584B000AF3B46184600F05FF97A688B
:1084D000064BA3FB02139B091846FFF7CFFF044B83
:1084E00000221A6000BF1037BD4680BDD34D621018
:1084F000588D012080B483B000AF78607A68064B55
:108500001A6000BF044B1B68002BFBD100BF0C3767
:10851000BD465DF8047B7047588D012080B400AFE4
:10852000064B1B68002B04D0044B1B685A1E034BE0
:108530001A6000BFBD465DF8047B7047588D01206E
:1085400080B485B000AF78600023FB730023BB7359
:108550000F237B737B68DB78002B37D0254BDB68E0
:10856000DB4303F4E0631B0AFB73FB7BC3F10403EF
:10857000BB737A7BFB7B42FA03F37B737B685B788C
:108580001A46BB7B02FA03F3FB737B689A787B7B0A
:108590001340DAB2FB7B1343FB73FB7B1B01FB73C2
:1085A000154A7B681B781344FA7B83F80023124B2F
:1085B0007A6812785209D2B27968097801F01F01FD
:1085C000012000FA01F143F822100EE00A4B7A680C
:1085D00012785209D2B27968097801F01F0101209E
:1085E00000FA01F1203243F822101437BD465DF83D
:1085F000047B704700ED00E000E100E080B487B04C
:1086000000AF7860396000237B6100233B61002369
:10861000FB6000237B6176E07B69012202FA03F3B1
:108620003B613B681A683B691340FB60FA683B6931
:108630009A4265D17B681A687B695B00032101FA65
:1086400003F3DB431A407B681A607B681A683B6857
:108650001B7919467B695B0001FA03F31A437B68B7
:108660001A603B681B79012B03D03B681B79022BF6
:108670002ED17B689A687B695B00032101FA03F3C2
:10868000DB431A407B689A607B689A683B685B7939
:1086900019467B695B0001FA03F31A437B689A6011
:1086A0007B685A687B699BB2012101FA03F3DB43C3
:1086B0001A407B685A607B685A683B689B79194608
:1086C0007B699BB201FA03F39BB21A437B685A6041
:1086D0007B68DA687B699BB25B00032101FA03F3D4
:1086E000DB431A407B68DA607B68DA683B68DB79D9
:1086F00019467B695B0001FA03F31A437B68DA6071
:108700007B6901337B617B690F2B85D91C37BD46A3
:108710005DF8047B704700BF80B485B000AF78601F
:108720000B467B800023FB737B681A697B881340B0
:10873000002B02D00123FB7301E00023FB73FB7BC2
:1087400018461437BD465DF8047B704780B483B08B
:1087500000AF78600B467B807B687A881A830C3781
:10876000BD465DF8047B704780B483B000AF78608D
:108770000B467B807B685A697B885A407B685A61CC
:108780000C37BD465DF8047B704700BF80B489B0EC
:1087900000AF78600023BB6100237B610023FB6195
:1087A00002233B610023FB600223BB60484B9B68B4
:1087B00003F00C03BB61BB69042B07D0082B09D065
:1087C000002B3FD17B68434A1A603FE07B68424AF6
:1087D0001A603BE03E4B5B6803F480039B0DFB603B
:1087E0003B4B5B6803F03F03BB60FB68002B0DD085
:1087F000394ABB68B2FBF3F2354B596847F6C07390
:108800000B409B0903FB02F3FB610CE0314ABB68A0
:10881000B2FBF3F22E4B596847F6C0730B409B092D
:1088200003FB02F3FB612A4B5B6803F440331B0C30
:1088300001335B003B61FA693B69B2FBF3F27B6891
:108840001A6003E07B68234A1A6000BF204B9B68D4
:1088500003F0F003BB61BB691B09BB611F4ABB6925
:1088600013441B78DBB27B617B681A687B69DA4052
:108870007B685A60164B9B6803F4E053BB61BB698D
:108880009B0ABB61154ABB6913441B78DBB27B6151
:108890007B685A687B69DA407B689A600C4B9B68FE
:1088A00003F46043BB61BB695B0BBB610B4ABB69F3
:1088B00013441B78DBB27B617B685A687B69DA40C2
:1088C0007B68DA602437BD465DF8047B704700BFE3
:1088D000003802400024F40000127A00408D01208C
:1088E00080B483B000AF78600B46FB70FB78002B40
:1088F00006D0094B084A116B7A680A431A6306E0EE
:10890000054B054A116B7A68D2430A401A630C374B
:10891000BD465DF8047B70470038024080B483B0E8
:1089200000AF78600B46FB70FB78002B06D0094B3C
:10893000084A116C7A680A431A6406E0054B054A36
:10894000116C7A68D2430A401A640C37BD465DF850
:10895000047B70470038024080B485B000AF786077
:1089600039600023FB817B681B88FB817A68284B78
:108970009A4213D07A68274B9A420FD07B68B3F1A2
:10898000804F0BD07A68244B9A4207D07A68234BE9
:108990009A4203D07A68224B9A4208D1FB8923F08D
:1089A0007003FB813B685A88FB891343FB817A681B
:1089B0001C4B9A420CD07A681B4B9A4208D0FB8918
:1089C00023F44073FB813B681A89FB891343FB81C5
:1089D0007B68FA891A803B685A687B68DA623B6870
:1089E0001A887B681A857A68094B9A4203D07A689C
:1089F000084B9A4204D13B689B7A1A467B681A86D8
:108A00007B6801229A821437BD465DF8047B70476B
:108A10000000014000040140000400400008004044
:108A2000000C0040001000400014004080B483B0EF
:108A300000AF78607B685B6A18460C37BD465DF80E
:108A4000047B704780B483B000AF78600B46FB7046
:108A5000FB78002B08D07B681B889BB243F0010396
:108A60009AB27B681A8007E07B681B889BB223F070
:108A700001039AB27B681A800C37BD465DF8047B0F
:108A8000704700BF80B483B000AF786013460A46D9
:108A90007A807B707B78002B08D07B689B899AB2A8
:108AA0007B8813439AB27B689A8109E07B689B8933
:108AB0009AB27B88DB439BB213409AB27B689A815F
:108AC0000C37BD465DF8047B704700BF80B485B0AD
:108AD00000AF78600B467B800023FB730023BB81D3
:108AE00000237B817B681B8A9AB27B881340BB8101
:108AF0007B689B899AB27B8813407B81BB89002B62
:108B000005D07B89002B02D00123FB7301E00023F9
:108B1000FB73FB7B18461437BD465DF8047B70473A
:108B200080B483B000AF78600B467B807B88DB43EA
:108B30009AB27B681A820C37BD465DF8047B704799
:108B400080B582B000AF154A154BD31A9B103B601D
:108B500000237B6007E0124B7A6853F82230984775
:108B60007B6801337B607A683B689A42F3D30D4A95
:108B70000D4BD31A9B103B6000237B6007E00A4B30
:108B80007A6853F8223098477B6801337B607A68B3
:108B90003B689A42F3D30837BD4680BD90820120DE
:108BA0008C820120908201209082012080B582B0C9
:108BB00000AF0B4A0B4BD31A9B103B603B687B60AA
:108BC00008E07B685A1E074B53F8223098477B68B1
:108BD000013B7B607B68002BF3D10837BD4680BD2D
:108BE000908201209082012080B483B000AF786031
:108BF000FEE700BF80B500AF114B114A126842F08A
:108C000001021A600E4B00229A600D4A0C4B1B6841
:108C100023F0847323F480331360094B094A5A60AC
:108C2000074B074A126822F480221A60044B002284
:108C3000DA6000F00BF8044B4FF000629A6080BDE0
:108C4000003802401030002400ED00E080B483B012
:108C500000AF00237B6000233B60354B344A126831
:108C600042F480321A60324B1B6803F400333B60DD
:108C70007B6801337B603B68002B03D17B68B3F5D5
:108C8000A04FF0D12A4B1B6803F40033002B02D015
:108C900001233B6001E000233B603B68012B42D194
:108CA000234B234A126C42F080521A64214B214A12
:108CB000126842F440421A601D4B1D4A92689A6045
:108CC0001B4B1B4A926842F400429A60184B184AA8
:108CD000926842F4A0529A60154B174A5A60144B9E
:108CE000134A126842F080721A6000BF104B1B6872
:108CF00003F00073002BF9D0104B40F205721A609C
:108D00000B4B0B4A926822F003029A60084B084A08
:108D1000926842F002029A6000BF054B9B6803F024
:108D20000C03082BF9D10C37BD465DF8047B704766
:108D3000003802400070004008544007003C0240E8
:108D400000000000010203040102030406070809F1
:0400000520018291C3
:00000001FF
